:100000000C9434000C9468000C9468000C94680004
:100010000C9468000C9468000C9468000C946800C0
:100020000C9468000C9468000C9468000C946800B0
:100030000C9468000C9468000C9468000C946800A0
:100040000C9468000C9468000C9468000C94680090
:100050000C9468000C9468000C9468000C94680080
:100060000C9468000C94680011241FBECFEFD8E0F8
:10007000DEBFCDBF0E9440000C945100F894FFCF2A
:100080000E946300509A589A84E60E945C002FE315
:100090008DE093E0215080409040E1F700C00000E7
:0200A000F3CF9C
:1000A200EC010E946D000E946C00CE010E946E0065
:0600B200CE010E946A006D
:0E00B8002A988EBD0DB407FEFDCF2A9A08953A
:0A00C6008CE284B981E58CBD089539
:0400D0000C9400008C
:0400D4000E943E0048
:0200D800089589
:0200DA00089587
:0200DC00089585
:00000001FF
