:100000000C9434000C9467000C9467000C94670007
:100010000C9467000C9467000C9467000C946700C4
:100020000C9467000C9467000C9467000C946700B4
:100030000C9467000C9467000C9467000C946700A4
:100040000C9467000C9467000C9467000C94670094
:100050000C9467000C9467000C9467000C94670084
:100060000C9467000C94670011241FBECFEFD8E0FA
:10007000DEBFCDBF0E9440000C945200F894FFCF29
:100080000E945D00509A0E946200833609F4589ADB
:100090002FE38DE093E0215080409040E1F700C0D5
:0400A0000000F1CF9C
:1000A400EC010E946C000E946B00CE010E946D0066
:0600B400CE010E9469006C
:0A00BA0080E184B980E48CBD089554
:0A00C4000DB407FEFDCF8EB50895C0
:0400CE000C9400008E
:0400D2000E943E004A
:0200D60008958B
:0200D800089589
:0200DA00089587
:00000001FF
